{
  "_format": "hh-sol-artifact-1",
  "contractName": "CSubscription",
  "sourceName": "contracts/Subscription.sol",
  "abi": [
    {
      "inputs": [],
      "stateMutability": "payable",
      "type": "constructor"
    },
    {
      "anonymous": false,
      "inputs": [
        {
          "indexed": true,
          "internalType": "address",
          "name": "from",
          "type": "address"
        },
        {
          "indexed": false,
          "internalType": "uint256",
          "name": "timestamp",
          "type": "uint256"
        },
        {
          "indexed": false,
          "internalType": "string",
          "name": "since",
          "type": "string"
        },
        {
          "indexed": false,
          "internalType": "uint256",
          "name": "monthDuration",
          "type": "uint256"
        }
      ],
      "name": "NewSubscription",
      "type": "event"
    },
    {
      "inputs": [],
      "name": "getAllWaves",
      "outputs": [
        {
          "components": [
            {
              "internalType": "address",
              "name": "waver",
              "type": "address"
            },
            {
              "internalType": "string",
              "name": "from",
              "type": "string"
            },
            {
              "internalType": "uint256",
              "name": "monthDuration",
              "type": "uint256"
            },
            {
              "internalType": "uint256",
              "name": "timestamp",
              "type": "uint256"
            }
          ],
          "internalType": "struct CSubscription.Subscription[]",
          "name": "",
          "type": "tuple[]"
        }
      ],
      "stateMutability": "view",
      "type": "function"
    },
    {
      "inputs": [
        {
          "internalType": "uint256",
          "name": "monthDuration",
          "type": "uint256"
        }
      ],
      "name": "getPrice",
      "outputs": [
        {
          "internalType": "uint256",
          "name": "",
          "type": "uint256"
        }
      ],
      "stateMutability": "pure",
      "type": "function"
    },
    {
      "inputs": [],
      "name": "getTotalWaves",
      "outputs": [
        {
          "internalType": "uint256",
          "name": "",
          "type": "uint256"
        }
      ],
      "stateMutability": "view",
      "type": "function"
    },
    {
      "inputs": [
        {
          "internalType": "address",
          "name": "",
          "type": "address"
        }
      ],
      "name": "lastSubscriptionAt",
      "outputs": [
        {
          "internalType": "uint256",
          "name": "",
          "type": "uint256"
        }
      ],
      "stateMutability": "view",
      "type": "function"
    },
    {
      "inputs": [
        {
          "internalType": "string",
          "name": "from",
          "type": "string"
        },
        {
          "internalType": "uint256",
          "name": "monthDuration",
          "type": "uint256"
        }
      ],
      "name": "subscript",
      "outputs": [],
      "stateMutability": "payable",
      "type": "function"
    }
  ],
  "bytecode": "0x6080604052610ebf806100136000396000f3fe60806040526004361061004a5760003560e01c80632900e1881461004f5780639a2cdc081461006b578063bd43a90814610096578063e56c6229146100c1578063e7572230146100fe575b600080fd5b6100696004803603810190610064919061080a565b61013b565b005b34801561007757600080fd5b506100806103eb565b60405161008d9190610af9565b60405180910390f35b3480156100a257600080fd5b506100ab6103f4565b6040516100b89190610a67565b60405180910390f35b3480156100cd57600080fd5b506100e860048036038101906100e391906107e1565b61054f565b6040516100f59190610af9565b60405180910390f35b34801561010a57600080fd5b506101256004803603810190610120919061085e565b610567565b6040516101329190610af9565b60405180910390f35b42603c600260003373ffffffffffffffffffffffffffffffffffffffff1673ffffffffffffffffffffffffffffffffffffffff168152602001908152602001600020546101889190610c0e565b106101c8576040517f08c379a00000000000000000000000000000000000000000000000000000000081526004016101bf90610ad9565b60405180910390fd5b6101d181610567565b341015610213576040517f08c379a000000000000000000000000000000000000000000000000000000000815260040161020a90610ab9565b60405180910390fd5b60018114156102615742600260003373ffffffffffffffffffffffffffffffffffffffff1673ffffffffffffffffffffffffffffffffffffffff168152602001908152602001600020819055505b60016000808282546102739190610c0e565b925050819055506102b96040518060400160405280600d81526020017f2573206861732061646465642100000000000000000000000000000000000000815250336105e7565b600160405180608001604052803373ffffffffffffffffffffffffffffffffffffffff16815260200184815260200183815260200142815250908060018154018082558091505060019003906000526020600020906004020160009091909190915060008201518160000160006101000a81548173ffffffffffffffffffffffffffffffffffffffff021916908373ffffffffffffffffffffffffffffffffffffffff160217905550602082015181600101908051906020019061037e9291906106ac565b50604082015181600201556060820151816003015550503373ffffffffffffffffffffffffffffffffffffffff167f3053c23346672750756b4118a93047d2cb48f50f010e08102c59a6ffaacfa2114284846040516103df93929190610b14565b60405180910390a25050565b60008054905090565b60606001805480602002602001604051908101604052809291908181526020016000905b8282101561054657838290600052602060002090600402016040518060800160405290816000820160009054906101000a900473ffffffffffffffffffffffffffffffffffffffff1673ffffffffffffffffffffffffffffffffffffffff1673ffffffffffffffffffffffffffffffffffffffff1681526020016001820180546104a190610ce2565b80601f01602080910402602001604051908101604052809291908181526020018280546104cd90610ce2565b801561051a5780601f106104ef5761010080835404028352916020019161051a565b820191906000526020600020905b8154815290600101906020018083116104fd57829003601f168201915b505050505081526020016002820154815260200160038201548152505081526020019060010190610418565b50505050905090565b60026020528060005260406000206000915090505481565b600080600283111561058357678ac7230489e8000090506105de565b6002831180156105935750600583105b156105a9576801158e460913d0000090506105dd565b6005831180156105b95750600983105b156105cf576801a055690d9db8000090506105dc565b68022b1c8c1227a0000090505b5b5b80915050919050565b61067f82826040516024016105fd929190610a89565b6040516020818303038152906040527f319af333000000000000000000000000000000000000000000000000000000007bffffffffffffffffffffffffffffffffffffffffffffffffffffffff19166020820180517bffffffffffffffffffffffffffffffffffffffffffffffffffffffff8381831617835250505050610683565b5050565b60008151905060006a636f6e736f6c652e6c6f679050602083016000808483855afa5050505050565b8280546106b890610ce2565b90600052602060002090601f0160209004810192826106da5760008555610721565b82601f106106f357805160ff1916838001178555610721565b82800160010185558215610721579182015b82811115610720578251825591602001919060010190610705565b5b50905061072e9190610732565b5090565b5b8082111561074b576000816000905550600101610733565b5090565b600061076261075d84610b77565b610b52565b90508281526020810184848401111561077a57600080fd5b610785848285610ca0565b509392505050565b60008135905061079c81610e5b565b92915050565b600082601f8301126107b357600080fd5b81356107c384826020860161074f565b91505092915050565b6000813590506107db81610e72565b92915050565b6000602082840312156107f357600080fd5b60006108018482850161078d565b91505092915050565b6000806040838503121561081d57600080fd5b600083013567ffffffffffffffff81111561083757600080fd5b610843858286016107a2565b9250506020610854858286016107cc565b9150509250929050565b60006020828403121561087057600080fd5b600061087e848285016107cc565b91505092915050565b600061089383836109e6565b905092915050565b6108a481610c64565b82525050565b6108b381610c64565b82525050565b60006108c482610bb8565b6108ce8185610bdb565b9350836020820285016108e085610ba8565b8060005b8581101561091c57848403895281516108fd8582610887565b945061090883610bce565b925060208a019950506001810190506108e4565b50829750879550505050505092915050565b600061093982610bc3565b6109438185610bec565b9350610953818560208601610caf565b61095c81610dd2565b840191505092915050565b600061097282610bc3565b61097c8185610bfd565b935061098c818560208601610caf565b61099581610dd2565b840191505092915050565b60006109ad601583610bfd565b91506109b882610de3565b602082019050919050565b60006109d0602b83610bfd565b91506109db82610e0c565b604082019050919050565b60006080830160008301516109fe600086018261089b565b5060208301518482036020860152610a16828261092e565b9150506040830151610a2b6040860182610a49565b506060830151610a3e6060860182610a49565b508091505092915050565b610a5281610c96565b82525050565b610a6181610c96565b82525050565b60006020820190508181036000830152610a8181846108b9565b905092915050565b60006040820190508181036000830152610aa38185610967565b9050610ab260208301846108aa565b9392505050565b60006020820190508181036000830152610ad2816109a0565b9050919050565b60006020820190508181036000830152610af2816109c3565b9050919050565b6000602082019050610b0e6000830184610a58565b92915050565b6000606082019050610b296000830186610a58565b8181036020830152610b3b8185610967565b9050610b4a6040830184610a58565b949350505050565b6000610b5c610b6d565b9050610b688282610d14565b919050565b6000604051905090565b600067ffffffffffffffff821115610b9257610b91610da3565b5b610b9b82610dd2565b9050602081019050919050565b6000819050602082019050919050565b600081519050919050565b600081519050919050565b6000602082019050919050565b600082825260208201905092915050565b600082825260208201905092915050565b600082825260208201905092915050565b6000610c1982610c96565b9150610c2483610c96565b9250827fffffffffffffffffffffffffffffffffffffffffffffffffffffffffffffffff03821115610c5957610c58610d45565b5b828201905092915050565b6000610c6f82610c76565b9050919050565b600073ffffffffffffffffffffffffffffffffffffffff82169050919050565b6000819050919050565b82818337600083830152505050565b60005b83811015610ccd578082015181840152602081019050610cb2565b83811115610cdc576000848401525b50505050565b60006002820490506001821680610cfa57607f821691505b60208210811415610d0e57610d0d610d74565b5b50919050565b610d1d82610dd2565b810181811067ffffffffffffffff82111715610d3c57610d3b610da3565b5b80604052505050565b7f4e487b7100000000000000000000000000000000000000000000000000000000600052601160045260246000fd5b7f4e487b7100000000000000000000000000000000000000000000000000000000600052602260045260246000fd5b7f4e487b7100000000000000000000000000000000000000000000000000000000600052604160045260246000fd5b6000601f19601f8301169050919050565b7f4e6f7420656e6f756768204d6174696320706169640000000000000000000000600082015250565b7f506c656173652077616974203630207365636f6e6473206265666f726520776160008201527f76696e6720616761696e2e000000000000000000000000000000000000000000602082015250565b610e6481610c64565b8114610e6f57600080fd5b50565b610e7b81610c96565b8114610e8657600080fd5b5056fea2646970667358221220d217269df5de29c9e16915d6ee37a7c84e8a95c4412d583b421fe5af31944aa664736f6c63430008040033",
  "linkReferences": {},
  "deployedLinkReferences": {}
}